:100000000C9435000C945D000C945D000C945D0024
:100010000C945D000C945D000C945D000C945D00EC
:100020000C945D000C945D000C945D000C945D00DC
:100030000C945D000C945D000C945D000C945D00CC
:100040000C946C010C945D000C94DC010C94B601D2
:100050000C945D000C945D000C945D000C945D00AC
:100060000C945D000C945D00020311241FBECFEFC1
:10007000D8E0DEBFCDBF11E0A0E0B1E0E2EBF6E0FA
:1000800002C005900D92A231B107D9F721E0A2E19B
:10009000B1E001C01D92A83BB207E1F710E0C5E353
:1000A000D0E004C02197FE010E945103C433D10760
:1000B000C9F70E940E020C9457030C940000AF92F3
:1000C000BF92CF92DF92EF92FF920F931F93CF9345
:1000D000DF936C017B018B01040F151FEB015E01A7
:1000E000AE18BF08C017D10759F06991D601ED913C
:1000F000FC910190F081E02DC6010995892B79F7DB
:10010000C501DF91CF911F910F91FF90EF90DF908C
:10011000CF90BF90AF900895FC01538D448D252F53
:1001200030E0842F90E0821B930B541710F0CF9691
:10013000089501970895FC01918D828D981761F0C3
:10014000A28DAE0FBF2FB11D5D968C91928D9F5FDA
:100150009F73928F90E008958FEF9FEF0895FC01B9
:10016000918D828D981731F0828DE80FF11D858D6C
:1001700090E008958FEF9FEF0895FC01918D228DFF
:10018000892F90E0805C9F4F821B91098F73992784
:10019000089582E191E00E94BD0021E0892B09F4DD
:1001A00020E0822F089580E090E0892B29F00E94C2
:1001B000C90081110C9400000895FC01A48DA80FC2
:1001C000B92FB11DA35ABF4F2C91848D90E0019699
:1001D0008F739927848FA689B7892C93A089B189B9
:1001E0008C91837080648C93938D848D981306C05A
:1001F0000288F389E02D80818F7D80830895EF92BE
:10020000FF920F931F93CF93DF93EC0181E0888FD0
:100210009B8D8C8D98131AC0E889F989808185FFA0
:1002200015C09FB7F894EE89FF896083E889F98942
:1002300080818370806480839FBF81E090E0DF9144
:10024000CF911F910F91FF90EF900895F62E0B8D97
:1002500010E00F5F1F4F0F731127E02E8C8D8E1152
:100260000CC00FB607FCFACFE889F989808185FFB9
:10027000F5CFCE010E94DD00F1CFEB8DEC0FFD2F0D
:10028000F11DE35AFF4FF0829FB7F8940B8FEA8974
:10029000FB8980818062CFCFCF93DF93EC01888D83
:1002A0008823B9F0AA89BB89E889F9898C9185FDF1
:1002B00003C0808186FD0DC00FB607FCF7CF8C917F
:1002C00085FFF2CF808185FFEDCFCE010E94DD005A
:1002D000E9CFDF91CF9108951F920F920FB60F9241
:1002E00011242F933F938F939F93AF93BF9380914C
:1002F000B4019091B501A091B601B091B7013091D0
:10030000B30123E0230F2D3758F50196A11DB11D30
:100310002093B3018093B4019093B501A093B601EB
:10032000B093B7018091AF019091B001A091B1015C
:10033000B091B2010196A11DB11D8093AF019093C0
:10034000B001A093B101B093B201BF91AF919F9161
:100350008F913F912F910F900FBE0F901F90189586
:1003600026E8230F0296A11DB11DD2CF1F920F9236
:100370000FB60F9211242F933F934F935F936F9378
:100380007F938F939F93AF93BF93EF93FF9382E1FC
:1003900091E00E94DD00FF91EF91BF91AF919F919D
:1003A0008F917F916F915F914F913F912F910F901E
:1003B0000FBE0F901F9018951F920F920FB60F92BD
:1003C00011242F938F939F93EF93FF93E09122013A
:1003D000F09123018081E0912801F091290182FDB3
:1003E0001BC0908180912B018F5F8F7320912C0116
:1003F000821741F0E0912B01F0E0EE5EFE4F958F09
:1004000080932B01FF91EF919F918F912F910F90EE
:100410000FBE0F901F9018958081F4CFCF93DF937C
:10042000CDB7DEB7A1970FB6F894DEBF0FBECDBF34
:10043000789484B5826084BD84B5816084BD85B5BF
:10044000826085BD85B5816085BD80916E008160CB
:1004500080936E0010928100809181008260809371
:100460008100809181008160809381008091800073
:100470008160809380008091B10084608093B1009E
:100480008091B00081608093B00080917A00846098
:1004900080937A0080917A00826080937A008091C4
:1004A0007A00816080937A0080917A0080688093DE
:1004B0007A001092C100E0912201F091230182E0C4
:1004C0008083E0911E01F0911F011082E0912001D4
:1004D000F09121018FEC808310922A01E091260196
:1004E000F091270186E08083E0912401F0912501BD
:1004F000808180618083E0912401F09125018081D9
:1005000088608083E0912401F091250180818068DA
:100510008083E0912401F091250180818F7D80838B
:100520008AE0882E912CA12CB12C00E010E082E111
:1005300091E00E94BD00181619060CF041C082E13E
:1005400091E00E94BD006C01990FEE08FF08F7FED4
:1005500043C06DE282E191E00E94FF002227332731
:10056000A9012C193D094E095F0919A2CE018196F6
:100570007C01CA01B901A50194010E942F03605DAD
:10058000F70162937F01211531054105510589F776
:10059000E114F10461F001900020E9F73197AF0117
:1005A0004E195F09B70182E191E00E945F0082E18C
:1005B00091E00E949B00682F82E191E00E94FF0081
:1005C0000115110509F4B3CF0E94C900882309F46D
:1005D000AECF0E940000ABCFA701960119A2CE01B9
:1005E00081967C01CA01B901A50194010E942F03E3
:1005F000605DF70162937F012115310541055105C9
:1006000089F7C6CFE2E1F1E01382128288EE93E02F
:10061000A0E0B0E084839583A683B78384E091E073
:100620009183808385EC90E09587848784EC90E0CB
:100630009787868780EC90E0918B808B81EC90E0AF
:10064000938B828B82EC90E0958B848B86EC90E090
:10065000978B868B118E128E138E148E0895A1E2C5
:100660001A2EAA1BBB1BFD010DC0AA1FBB1FEE1F2C
:10067000FF1FA217B307E407F50720F0A21BB30B77
:10068000E40BF50B661F771F881F991F1A9469F7F3
:1006900060957095809590959B01AC01BD01CF014F
:1006A0000895EE0FFF1F0590F491E02D0994F89442
:0206B000FFCF7A
:1006B20000000000FF005F008C004C01BD009B00A9
:0206C200AF0087
:00000001FF
