:100000000C9462000C948A000C948A000C948A0070
:100010000C948A000C948A000C948A000C948A0038
:100020000C948A000C948A000C948A000C948A0028
:100030000C948A000C948A000C948A000C948A0018
:100040000C94A1010C948A000C9411020C94EB0105
:100050000C948A000C948A000C948A000C948A00F8
:100060000C948A000C948A000000000025002800EF
:100070002B0000000000240027002A0000000000E0
:1000800023002600290004040404040404040202DA
:100090000202020203030303030301020408102007
:1000A0004080010204081020010204081020000012
:1000B0000008000201000003040700000000000027
:1000C00000007B0311241FBECFEFD8E0DEBFCDBF01
:1000D00011E0A0E0B1E0E0E6F7E002C005900D928B
:1000E000AE32B107D9F721E0AEE2B1E001C01D9216
:1000F000A83DB207E1F710E0C2E6D0E004C02197C6
:10010000FE010E94A803C136D107C9F70E9443022D
:100110000C94AE030C940000AF92BF92CF92DF928A
:10012000EF92FF920F931F93CF93DF936C017B01AC
:100130008B01040F151FEB015E01AE18BF08C0173D
:10014000D10759F06991D601ED91FC910190F081B0
:10015000E02DC6010995892B79F7C501DF91CF9173
:100160001F910F91FF90EF90DF90CF90BF90AF90D5
:100170000895FC01538D448D252F30E0842F90E0AD
:10018000821B930B541710F0CF9608950197089592
:10019000FC01918D828D981761F0A28DAE0FBF2F5B
:1001A000B11D5D968C91928D9F5F9F73928F90E0B1
:1001B00008958FEF9FEF0895FC01918D828D981720
:1001C00031F0828DE80FF11D858D90E008958FEF5D
:1001D0009FEF0895FC01918D228D892F90E0805C26
:1001E0009F4F821B91098F73992708958BE391E0AC
:1001F0000E94EA0021E0892B09F420E0822F089573
:1002000080E090E0892B29F00E94F60081110C9487
:1002100000000895FC01A48DA80FB92FB11DA35AA9
:10022000BF4F2C91848D90E001968F739927848F16
:10023000A689B7892C93A089B1898C918370806439
:100240008C93938D848D981306C00288F389E02DDA
:1002500080818F7D80830895EF92FF920F931F938B
:10026000CF93DF93EC0181E0888F9B8D8C8D981369
:100270001AC0E889F989808185FF15C09FB7F89475
:10028000EE89FF896083E889F989808183708064C1
:1002900080839FBF81E090E0DF91CF911F910F910C
:1002A000FF90EF900895F62E0B8D10E00F5F1F4F1B
:1002B0000F731127E02E8C8D8E110CC00FB607FC2A
:1002C000FACFE889F989808185FFF5CFCE010E94B8
:1002D0000A01F1CFEB8DEC0FFD2FF11DE35AFF4F1B
:1002E000F0829FB7F8940B8FEA89FB898081806246
:1002F000CFCFCF93DF93EC01888D8823B9F0AA8903
:10030000BB89E889F9898C9185FD03C0808186FDD0
:100310000DC00FB607FCF7CF8C9185FFF2CF80811F
:1003200085FFEDCFCE010E940A01E9CFDF91CF9189
:10033000089542E050E062E171E08BE391E00C94BB
:100340008C001F920F920FB60F9211242F933F93A0
:100350008F939F93AF93BF93809137019091380112
:10036000A0913901B0913A013091360123E0230F79
:100370002D3758F50196A11DB11D209336018093AC
:10038000370190933801A0933901B0933A018091DD
:10039000320190913301A0913401B0913501019661
:1003A000A11DB11D8093320190933301A0933401BC
:1003B000B0933501BF91AF919F918F913F912F9154
:1003C0000F900FBE0F901F90189526E8230F0296EE
:1003D000A11DB11DD2CF1F920F920FB60F92112403
:1003E0002F933F934F935F936F937F938F939F933D
:1003F000AF93BF93EF93FF938BE391E00E940A01C9
:10040000FF91EF91BF91AF919F918F917F916F91EC
:100410005F914F913F912F910F900FBE0F901F90C2
:1004200018951F920F920FB60F9211242F938F934E
:100430009F93EF93FF93E0914B01F0914C018081EA
:10044000E0915101F091520182FD1BC09081809199
:1004500054018F5F8F7320915501821741F0E09115
:100460005401F0E0E55CFE4F958F80935401FF91BD
:10047000EF919F918F912F910F900FBE0F901F9032
:1004800018958081F4CF789484B5826084BD84B55A
:10049000816084BD85B5826085BD85B5816085BD7F
:1004A00080916E00816080936E0010928100809137
:1004B00081008260809381008091810081608093BF
:1004C0008100809180008160809380008091B100E4
:1004D00084608093B1008091B00081608093B0000F
:1004E00080917A00846080937A0080917A008260A3
:1004F00080937A0080917A00816080937A00809165
:100500007A00806880937A001092C100E0914B01DC
:10051000F0914C0182E08083E0914701F091480125
:100520001082E0914901F0914A018FEC8083109292
:100530005301E0914F01F091500186E08083E091FA
:100540004D01F0914E01808180618083E0914D01E9
:10055000F0914E01808188608083E0914D01F0919F
:100560004E01808180688083E0914D01F0914E01C1
:1005700080818F7D8083CEE9D0E0FE0124910AE85E
:1005800010E0F80184918823C9F090E0880F991F4A
:10059000FC01EE58FF4FA591B491FC01E859FF4FC3
:1005A000459154913FB7F8949C91822F8095982360
:1005B0009C93FA019081892380833FBFECE9F0E0AE
:1005C0002491E8E8F0E08491882399F090E0880F86
:1005D000991FFC01EE58FF4FA591B491FC01E85919
:1005E000FF4F859194918FB7F894EC91E22BEC93A7
:1005F0008FBF92EBE92E90E0F92E20E0C22E20E092
:10060000D22EAA24A394B12CF7018491FE019491D7
:10061000F8012491211115C010923101109230017E
:1006200080912E0190912F01019781F54CE050E0CF
:1006300061E271E08BE391E00E948C000E949901DD
:1006400025C0882351F0833009F43EC098F58130ED
:1006500009F440C0823009F441C0E22FF0E0EE0F0F
:10066000FF1FE458FF4FA591B4918C919823A1F2FC
:1006700080912E0190912F01B0923101A092300112
:100680004BE050E065E171E0892BA1F280913001EF
:100690009091310190932F0180932E01C114D104C8
:1006A00009F4B2CF0E94F600882309F4ADCF0E946E
:1006B0000000AACF8730A9F08830C9F0843069F6ED
:1006C000809180008F7D03C0809180008F77809320
:1006D0008000C3CF84B58F7784BDBFCF84B58F7DB5
:1006E000FBCF8091B0008F778093B000B6CF809120
:1006F000B0008F7DF9CFEBE3F1E01382128288EE38
:1007000093E0A0E0B0E084839583A683B78384E080
:1007100091E09183808385EC90E09587848784ECD9
:1007200090E09787868780EC90E0918B808B81ECBE
:1007300090E0938B828B82EC90E0958B848B86EC9F
:1007400090E0978B868B118E128E138E148E0895E7
:10075000EE0FFF1F0590F491E02D0994F894FFCF60
:10076000000000002C018C00B9007901EA00C800EB
:10077000DC000D0A00726973696E672045444745C5
:0E0780000066616C6C696E6720454447450059
:00000001FF
