:100000000C945C000C9479000C9479000C947900A9
:100010000C9479000C9479000C9479000C9479007C
:100020000C9479000C9479000C9479000C9479006C
:100030000C9479000C9479000C9479000C9479005C
:100040000C940B010C9479000C9479000C947900B9
:100050000C9479000C9479000C9479000C9479003C
:100060000C9479000C947900000000080002010053
:100070000003040700000000000000000000000072
:10008000250028002B0000000000240027002A0083
:10009000040404040404040402020202020203032E
:1000A0000303030301020408102040800102040836
:1000B000102001020408102011241FBECFEFD8E049
:1000C000DEBFCDBF11E0A0E0B1E0EAE8F6E002C09B
:1000D00005900D92A03FB107D9F721E0A0EFB1E064
:1000E00001C01D92A93FB207E1F70E9455010C948F
:1000F00043030C94000090E0FC01EC55FF4F249169
:1001000080579F4FFC018491882399F090E0880FDD
:10011000991FFC01EA57FF4FA591B491FC01E458E7
:10012000FF4F859194918FB7F894EC91E22BEC936B
:100130008FBF089590E0FC01E859FF4F2491FC0126
:10014000EC55FF4F3491FC01E057FF4FE491EE2353
:10015000C9F0222339F0233001F1A8F4213019F13C
:10016000223029F1F0E0EE0FFF1FE458FF4FA59178
:10017000B4918FB7F894EC91611126C030953E236D
:100180003C938FBF08952730A9F02830C9F0243060
:1001900049F7809180008F7D03C0809180008F7728
:1001A00080938000DFCF84B58F7784BDDBCF84B5AB
:1001B0008F7DFBCF8091B0008F778093B000D2CF3E
:1001C0008091B0008F7DF9CF3E2BDACF3FB7F89406
:1001D0008091F5019091F601A091F701B091F8019D
:1001E00026B5A89B05C02F3F19F00196A11DB11D92
:1001F0003FBFBA2FA92F982F8827BC01CD01620FCE
:10020000711D811D911D42E0660F771F881F991F88
:100210004A95D1F708951F920F920FB60F921124AD
:100220002F933F938F939F93AF93BF938091F1014F
:100230009091F201A091F301B091F4013091F0019D
:1002400023E0230F2D3758F50196A11DB11D2093F2
:10025000F0018093F1019093F201A093F301B09328
:10026000F4018091F5019091F601A091F701B09110
:10027000F8010196A11DB11D8093F5019093F6013F
:10028000A093F701B093F801BF91AF919F918F9127
:100290003F912F910F900FBE0F901F90189526E859
:1002A000230F0296A11DB11DD2CF789484B5826030
:1002B00084BD84B5816084BD85B5826085BD85B50A
:1002C000816085BD80916E00816080936E00109288
:1002D0008100809181008260809381008091810003
:1002E0008160809381008091800081608093800094
:1002F0008091B10084608093B1008091B0008160F2
:100300008093B00080917A00846080937A0080911D
:100310007A00826080937A0080917A008160809375
:100320007A0080917A00806880937A001092C100F0
:1003300000EE11E070EFC72E71E0D72EECEAEE2E42
:10034000E1E0FE2EE801E991F991EE0FFF1FE45480
:10035000FE4F80810E947B00D701ED91FD917D01D0
:10036000EE0FFF1FE454FE4F80810E947B00CC16ED
:10037000DD0649F74CEAE42E41E0F42ED801ED9178
:10038000FD918D01EE0FFF1FE454FE4F61E080816F
:100390000E949A00D701ED91FD917D01EE0FFF1FA4
:1003A000E454FE4F61E080810E949A000C171D0703
:1003B00029F789E0982E22242394312C809106017C
:1003C000909107012091040130910501989EF00160
:1003D000999EF00D1124E20FF31FEE0FFF1FE85F4F
:1003E000FE4F118210824091020150910301240FAF
:1003F000351F283031050CF00DC1309305012093D5
:1004000004012091040130910501223031057CF472
:1004100030920501209204012091020130910301E4
:1004200031952195310930930301209302014091C8
:10043000000150910101840F951F90930701809353
:10044000060120910401309105018830910504F1E5
:10045000989EF001999EF00D1124E20FF31FEE0F0C
:10046000FF1FE85FFE4F608171816130710549F4C3
:10047000BA01660F771F861B970B90930701809335
:100480000601519541955109509301014093000196
:10049000809106019091070102977CF48091000100
:1004A000909101013092070120920601919581956A
:1004B00091099093010180930001409106015091B0
:1004C00007018091000190910101BA01680F791F25
:1004D000969EF001979EF00D1124DF01A20FB31F2D
:1004E000AA0FBB1FA85FBE4F6D917C911197613021
:1004F000710509F09DC04730510511F01D921C9205
:100500009195819591099093010180930001949EAA
:10051000F001959EF00D1124E20FF31FEE0FFF1F67
:10052000E85FFE4F21E030E03183208363E0A62EB8
:10053000B12CCCE1D1E00EED11E0EE24E394F12CEE
:1005400061E08EE031E0E316F10449F0D801ED916D
:10055000FC91EE0FFF1FE454FE4F61E080810E948A
:100560009A003E01B0E16B0E711C2CEA422E21E094
:10057000522E6E01F601219131916F01D201ED9160
:10058000FD912D01EE0FFF1FE454FE4F808161E0CD
:100590002130310509F060E00E949A006C147D045E
:1005A00049F7FE0181919191019709F067C0D80147
:1005B0001296ED91FC91EE0FFF1FE454FE4F60E0A8
:1005C00080810E949A000E94E6002B013C010E945B
:1005D000E6006419750986099709683E734081052C
:1005E0009105A8F3BFEFEB1AFB0A0E5F1F4F62964F
:1005F000E9E0EE16F10409F0A3CF21E0A21AB10858
:1006000009F097CF80E090E0892B09F4D7CE0E94C3
:100610000000D4CEE8E0F0E0F0930501E09304019F
:100620005195419551095093030140930201E9CE40
:100630006091020170910301DB01A20FB31FEA0F69
:10064000FB1FEE0FFF1FE85FFE4FA081B1811197E6
:1006500009F05DCF4730510511F01182108291955C
:1006600081959109909301018093000171956195A5
:100670007109709303016093020149CFCE16DF0622
:0A06800009F090CFA0CFF894FFCF4F
:10068A000100010004000700FFFFFFFFFFFFFFFF5B
:10069A00FFFFFFFFFFFFFFFF0000FFFF0100010058
:1006AA00010001000100010001000100FFFF01003B
:1006BA000100010001000100010001000100FFFF2B
:1006CA000100010001000100010001000100010018
:1006DA00FFFF000000000000000000000000000012
:1006EA000000FFFF00000000000000000000000002
:1006FA0000000000FFFF00000000000000000000F2
:10070A00000000000000FFFF0000000000000100E0
:10071A000000000000000000FFFF000000000100D0
:10072A0001000100000000000000FFFF0D000300AF
:10073A0004000A0006000B000F001000FFFF0A0069
:10074A000B000C000D000E000F001000110002003B
:10075A000300040005000600070008000900FFFF67
:10076A0009000E0008000C00010007000200050045
:00000001FF
