:100000000C945D000C9485000C9485000C94850084
:100010000C9485000C9485000C9485000C9485004C
:100020000C9485000C9485000C9485000C9485003C
:100030000C9485000C9485000C9485000C9485002C
:100040000C948E020C9485000C94FE020C94D80241
:100050000C9485000C9485000C9485000C9485000C
:100060000C9485000C9485000000000024002700FB
:100070002A0000000000250028002B0004040404CE
:100080000404040402020202020203030303030342
:10009000010204081020408001020408102001021F
:1000A00004081020000000080002010000030407FB
:1000B0000000000000000000570411241FBECFEF15
:1000C000D8E0DEBFCDBF11E0A0E0B1E0ECE5F9E0A3
:1000D00002C005900D92A632B107D9F721E0A6E241
:1000E000B1E001C01D92AD3CB207E1F710E0CDE5F3
:1000F000D0E004C02197FE010E94A604CC35D107B0
:10010000C9F70E9430030C94AC040C94000090E0FA
:10011000FC01EC55FF4F2491FC01E057FF4F349157
:10012000FC01E458FF4FE491EE23C9F0222339F09B
:10013000233001F1A8F4213019F1223029F1F0E047
:10014000EE0FFF1FEE58FF4FA591B4918FB7F894B3
:10015000EC91611126C030953E233C938FBF0895EA
:100160002730A9F02830C9F0243049F78091800069
:100170008F7D03C0809180008F7780938000DFCFD8
:1001800084B58F7784BDDBCF84B58F7DFBCF809125
:10019000B0008F778093B000D2CF8091B0008F7D78
:1001A000F9CF3E2BDACF3FB7F89480912C01909194
:1001B0002D01A0912E01B0912F0126B5A89B05C05D
:1001C0002F3F19F00196A11DB11D3FBFBA2FA92FD6
:1001D000982F8827BC01CD01620F711D811D911DD3
:1001E00042E0660F771F881F991F4A95D1F708953F
:1001F0008F929F92AF92BF92CF92DF92EF92FF9237
:100200004B015C010E94D3006B017C010E94D30072
:100210006C197D098E099F09683E7340810591051F
:10022000A8F321E0821A9108A108B10888EEC80E4F
:1002300083E0D81EE11CF11C81149104A104B104D7
:1002400029F7FF90EF90DF90CF90BF90AF909F90F5
:100250008F900895AF92BF92CF92DF92EF92FF926C
:100260000F931F93CF93DF936C017B018B01040FDE
:10027000151FEB015E01AE18BF08C017D10759F07A
:100280006991D601ED91FC910190F081E02DC601BC
:100290000995892B79F7C501DF91CF911F910F91B6
:1002A000FF90EF90DF90CF90BF90AF900895FC014A
:1002B000538D448D252F30E0842F90E0821B930BCB
:1002C000541710F0CF96089501970895FC01918D71
:1002D000828D981761F0A28DAE0FBF2FB11D5D9674
:1002E0008C91928D9F5F9F73928F90E008958FEF16
:1002F0009FEF0895FC01918D828D981731F0828DCA
:10030000E80FF11D858D90E008958FEF9FEF089520
:10031000FC01918D228D892F90E0805C9F4F821B84
:1003200091098F739927089580E391E00E948801D5
:1003300021E0892B09F420E0822F089580E090E0ED
:10034000892B29F00E94940181110C9400000895DA
:10035000FC01A48DA80FB92FB11DA35ABF4F2C913A
:10036000848D90E001968F739927848FA689B78931
:100370002C93A089B1898C91837080648C93938D28
:10038000848D981306C00288F389E02D80818F7DCB
:1003900080830895EF92FF920F931F93CF93DF9383
:1003A000EC0181E0888F9B8D8C8D98131AC0E889B1
:1003B000F989808185FF15C09FB7F894EE89FF8980
:1003C0006083E889F98980818370806480839FBF1E
:1003D00081E090E0DF91CF911F910F91FF90EF901E
:1003E0000895F62E0B8D10E00F5F1F4F0F7311272E
:1003F000E02E8C8D8E110CC00FB607FCFACFE88969
:10040000F989808185FFF5CFCE010E94A801F1CF47
:10041000EB8DEC0FFD2FF11DE35AFF4FF0829FB7DC
:10042000F8940B8FEA89FB8980818062CFCFCF93CC
:10043000DF93EC01888D8823B9F0AA89BB89E8890C
:10044000F9898C9185FD03C0808186FD0DC00FB6B2
:1004500007FCF7CF8C9185FFF2CF808185FFEDCF30
:10046000CE010E94A801E9CFDF91CF910895CF92EC
:10047000DF92EF92FF920F931F93CF93DF93CDB74D
:10048000DEB7A1970FB6F894DEBF0FBECDBF282F01
:1004900030E050E040E019A28E010F5D1F4F8AE06E
:1004A000C82ED12CE12CF12CCA01B901A70196016B
:1004B0000E948404605DF80162938F01211531056B
:1004C0004105510589F7309731F101900020E9F796
:1004D0003197AF01401B510BB80180E391E00E94BE
:1004E0002A018C0142E050E062E271E080E391E099
:1004F0000E942A01800F911FA1960FB6F894DEBFCB
:100500000FBECDBFDF91CF911F910F91FF90EF9064
:10051000DF90CF90089510E000E0E4CF1F920F929B
:100520000FB60F9211242F933F938F939F93AF9306
:10053000BF938091280190912901A0912A01B09147
:100540002B013091270123E0230F2D3758F5019619
:10055000A11DB11D209327018093280190932901AB
:10056000A0932A01B0932B0180912C0190912D0131
:10057000A0912E01B0912F010196A11DB11D809374
:100580002C0190932D01A0932E01B0932F01BF91C8
:10059000AF919F918F913F912F910F900FBE0F9030
:1005A0001F90189526E8230F0296A11DB11DD2CFEA
:1005B0001F920F920FB60F9211242F933F934F93D8
:1005C0005F936F937F938F939F93AF93BF93EF93BB
:1005D000FF9380E391E00E94A801FF91EF91BF910A
:1005E000AF919F918F917F916F915F914F913F91CB
:1005F0002F910F900FBE0F901F9018951F920F9282
:100600000FB60F9211242F938F939F93EF93FF9325
:10061000E0914001F09141018081E0914601F0912B
:10062000470182FD1BC09081809149018F5F8F73CC
:1006300020914A01821741F0E0914901F0E0E05D2C
:10064000FE4F958F80934901FF91EF919F918F917C
:100650002F910F900FBE0F901F9018958081F4CFAF
:10066000789484B5826084BD84B5816084BD85B58D
:10067000826085BD85B5816085BD80916E00816099
:1006800080936E001092810080918100826080933F
:100690008100809181008160809381008091800041
:1006A0008160809380008091B10084608093B1006C
:1006B0008091B00081608093B00080917A00846066
:1006C00080937A0080917A00826080937A00809192
:1006D0007A00816080937A0080917A0080688093AC
:1006E0007A001092C100C2E1D1E0899199919927D5
:1006F000FC01E057FF4F249184589F4FFC018491E7
:10070000882399F090E0880F991FFC01E859FF4F6A
:10071000A591B491FC01EE58FF4F859194918FB74C
:10072000F894EC91E22BEC938FBFF1E0C232DF073B
:10073000E1F6E0914001F091410182E08083E09197
:100740003C01F0913D011082E0913E01F0913F01AA
:100750008FEC808310924801E0914401F0914501B3
:1007600086E08083E0914201F091430180818061C5
:100770008083E0914201F091430180818860808311
:10078000E0914201F0914301808180688083E09193
:100790004201F091430180818F7D808390E0C92EDA
:1007A00090E0D92E88E0E82EF12C809126010E945D
:1007B0003702809126018860809326010E943702CB
:1007C000809126018061809326010E9437028091EA
:1007D00026018062809326010E94370280912601C3
:1007E0008064809326010E943702809126018068F0
:1007F000809326010E9437021091260110FF04C049
:1008000061E082E00E94870011FF04C061E083E0A4
:100810000E94870012FF04C061E084E00E9487000C
:1008200013FF04C061E085E00E94870014FF04C04C
:1008300061E086E00E94870015FF04C061E087E068
:100840000E94870016FF04C061E088E00E948700D4
:1008500017FF04C061E089E00E94870064EF71E047
:1008600080E090E00E94F80002E111E0F801808150
:100870000E5F1F4F60E00E948700C017D107B1F7DD
:10088000F1E0EF1AF10809F090CF64EC79E080E034
:1008900090E00E94F800C114D10409F483CF0E94B3
:1008A0009401882309F47ECF0E9400007BCFE0E30F
:1008B000F1E01382128288EE93E0A0E0B0E084833E
:1008C0009583A683B78384E091E09183808385EC50
:1008D00090E09587848784EC90E09787868780EC0A
:1008E00090E0918B808B81EC90E0938B828B82ECFB
:1008F00090E0958B848B86EC90E0978B868B118EA5
:10090000128E138E148E0895A1E21A2EAA1BBB1B01
:10091000FD010DC0AA1FBB1FEE1FFF1FA217B307CB
:10092000E407F50720F0A21BB30BE40BF50B661FE1
:10093000771F881F991F1A9469F7609570958095A5
:1009400090959B01AC01BD01CF010895EE0FFF1FF3
:0C0950000590F491E02D0994F894FFCF7D
:10095C0000000000CA012A01570117028801660134
:10096C007A010200030004000500060007000800DD
:06097C0009000D0A000055
:00000001FF
