:100000000C9462000C948A000C948A000C948A0070
:100010000C948A000C948A000C948A000C948A0038
:100020000C948A000C948A000C948A000C948A0028
:100030000C948A000C948A000C948A000C948A0018
:100040000C94EE010C948A000C945E020C9438021D
:100050000C948A000C948A000C948A000C948A00F8
:100060000C948A000C948A000000000024002700F1
:100070002A000000000023002600290000000000E4
:10008000250028002B0004040404040404040202D4
:100090000202020203030303030301020408102007
:1000A0004080010204081020010204081020000012
:1000B0000008000201000003040700000000000027
:1000C0000000310411241FBECFEFD8E0DEBFCDBF4A
:1000D00011E0A0E0B1E0ECE7FBE002C005900D927A
:1000E000AA31B107D9F721E0AAE1B1E001C01D9220
:1000F000A03CB207E1F710E0C2E6D0E004C02197CF
:10010000FE010E94B605C136D107C9F70E94D5028B
:100110000C94BC050C940000E8EBF0E02491E4EAB8
:10012000F0E09491E0E9F0E0E491EE23C9F02223BD
:1001300039F0233001F1A8F4213019F1223029F1EE
:10014000F0E0EE0FFF1FE458FF4FA591B4912FB7D9
:10015000F894EC91811126C090959E239C932FBF1B
:1001600008952730A9F02830C9F0243049F72091AC
:1001700080002F7D03C0209180002F772093800086
:10018000DFCF24B52F7724BDDBCF24B52F7DFBCF68
:100190002091B0002F772093B000D2CF2091B000F3
:1001A0002F7DF9CF9E2BDACFAF92BF92CF92DF9205
:1001B000EF92FF920F931F93CF93DF936C017B011C
:1001C0008B01040F151FEB015E01AE18BF08C017AD
:1001D000D10759F06991D601ED91FC910190F08120
:1001E000E02DC6010995892B79F7C501DF91CF91E3
:1001F0001F910F91FF90EF90DF90CF90BF90AF9045
:100200000895FC01538D448D252F30E0842F90E01C
:10021000821B930B541710F0CF9608950197089501
:10022000FC01918D828D981761F0A28DAE0FBF2FCA
:10023000B11D5D968C91928D9F5F9F73928F90E020
:1002400008958FEF9FEF0895FC01918D828D98178F
:1002500031F0828DE80FF11D858D90E008958FEFCC
:100260009FEF0895FC01918D228D892F90E0805C95
:100270009F4F821B91098F739927089583E291E024
:100280000E94320121E0892B09F420E0822F089599
:1002900080E090E0892B29F00E943E0181110C94AE
:1002A00000000895FC01A48DA80FB92FB11DA35A19
:1002B000BF4F2C91848D90E001968F739927848F86
:1002C000A689B7892C93A089B1898C9183708064A9
:1002D0008C93938D848D981306C00288F389E02D4A
:1002E00080818F7D80830895EF92FF920F931F93FB
:1002F000CF93DF93EC0181E0888F9B8D8C8D9813D9
:100300001AC0E889F989808185FF15C09FB7F894E4
:10031000EE89FF896083E889F98980818370806430
:1003200080839FBF81E090E0DF91CF911F910F917B
:10033000FF90EF900895F62E0B8D10E00F5F1F4F8A
:100340000F731127E02E8C8D8E110CC00FB607FC99
:10035000FACFE889F989808185FFF5CFCE010E9427
:100360005201F1CFEB8DEC0FFD2FF11DE35AFF4F42
:10037000F0829FB7F8940B8FEA89FB8980818062B5
:10038000CFCFCF93DF93EC01888D8823B9F0AA8972
:10039000BB89E889F9898C9185FD03C0808186FD40
:1003A0000DC00FB607FCF7CF8C9185FFF2CF80818F
:1003B00085FFEDCFCE010E945201E9CFDF91CF91B1
:1003C0000895FC0101900020E9F73197AF01481B27
:1003D000590BBC0183E291E00C94D4001F920F9260
:1003E0000FB60F9211242F933F938F939F93AF9348
:1003F000BF9380911F0190912001A0912101B091A4
:10040000220130911E0123E0230F2D3758F501966C
:10041000A11DB11D20931E0180931F019093200107
:10042000A0932101B093220180911A0190911B01A8
:10043000A0911C01B0911D010196A11DB11D8093D9
:100440001A0190931B01A0931C01B0931D01BF9151
:10045000AF919F918F913F912F910F900FBE0F9071
:100460001F90189526E8230F0296A11DB11DD2CF2B
:100470001F920F920FB60F9211242F933F934F9319
:100480005F936F937F938F939F93AF93BF93EF93FC
:10049000FF9383E291E00E945201FF91EF91BF919F
:1004A000AF919F918F917F916F915F914F913F910C
:1004B0002F910F900FBE0F901F9018951F920F92C3
:1004C0000FB60F9211242F938F939F93EF93FF9367
:1004D000E0913301F09134018081E0913901F09194
:1004E0003A0182FD1BC0908180913C018F5F8F7328
:1004F00020913D01821741F0E0913C01F0E0ED5D7B
:10050000FE4F958F80933C01FF91EF919F918F91CA
:100510002F910F900FBE0F901F9018958081F4CFF0
:10052000CF92DF92EF92FF920F931F93E82FF92F54
:1005300005C0015011092109310961F1908196230B
:100540009417B9F305C0015011092109310911F1BE
:10055000908196239413F7CFC12CD12CE12CF12C50
:100560000AC08FEFC81AD80AE80AF80A0C151D0548
:100570002E053F0579F080818623841791F36C2D39
:100580007D2D8E2D9F2D1F910F91FF90EF90DF906D
:10059000CF90089560E070E080E090E01F910F91AF
:1005A000FF90EF90DF90CF900895CF93DF93CDB77A
:1005B000DEB7A1970FB6F894DEBF0FBECDBF78941B
:1005C00084B5826084BD84B5816084BD85B5826058
:1005D00085BD85B5816085BD80916E008160809309
:1005E0006E00109281008091810082608093810072
:1005F0008091810081608093810080918000816082
:10060000809380008091B10084608093B1008091DC
:10061000B00081608093B00080917A008460809304
:100620007A0080917A00826080937A0080917A00CB
:10063000816080937A0080917A00806880937A004C
:100640001092C100E0913301F091340182E0808387
:10065000E0912F01F09130011082E0913101F09191
:10066000320180E1808310923B01E0913701F091EB
:10067000380186E08083E0913501F0913601808178
:1006800080618083E0913501F0913601808188603E
:100690008083E0913501F09136018081806880830C
:1006A000E0913501F091360180818F7D8083E4EA0D
:1006B000F0E02491E0E9F0E08491882399F090E063
:1006C000880F991FFC01E859FF4FA591B491FC01D7
:1006D000E458FF4F859194918FB7F894EC91E22BF9
:1006E000EC938FBF75EA272E70E0372EF10124912D
:1006F000E1E98E2EE0E09E2EF40184918823C9F07A
:1007000090E0880F991FFC01E859FF4FA591B49123
:10071000FC01E458FF4F459154913FB7F8949C91E8
:10072000822F809598239C93FA019081892380835E
:100730003FBF4AE0C42ED12CE12CF12C50E0A52E75
:1007400050E0B52E80E00E948C0083E090E001979D
:10075000F1F781E00E948C0083E290E00197F1F7CD
:1007600080E00E948C00F1016491F4018491E82FF3
:10077000F0E0EE0FFF1FEE58FF4F8591949100E4DB
:1007800012E42FE030E0462F0E94900261157105BF
:100790008105910529F06F5F7F4F8F4F9F4F9F70AD
:1007A00095958795779567950E9408052DEC3CEC0B
:1007B00048EE51E40E945E040E94D0042B013C01EB
:1007C00077FE39C06DE283E291E00E947401222736
:1007D0003327A901241935094609570919A2CE0161
:1007E00081963C01CA01B901A70196010E949405B6
:1007F000605DF30162933F0121153105410551050B
:1008000089F76114710419F0C3010E94E10182E1CA
:1008100091E00E94E10187E191E00E94E101A114D1
:10082000B10409F48FCF0E943E01882309F48ACFD6
:100830000E94000087CFAC019B0119A2CE018196D6
:100840003C01CA01B901A70196010E949405605DAF
:10085000F30162933F01211531054105510589F7E7
:10086000D0CFE3E2F1E01382128288EE93E0A0E0C1
:10087000B0E084839583A683B78384E091E091837D
:10088000808385EC90E09587848784EC90E097875F
:10089000868780EC90E0918B808B81EC90E0938B4D
:1008A000828B82EC90E0958B848B86EC90E0978B2A
:1008B000868B118E128E138E148E08950E947204F0
:1008C0000C945A050E94530558F00E944C0540F0C4
:1008D00029F45F3F29F00C94430551110C948E05C7
:1008E0000C9449050E946B0568F39923B1F35523D5
:1008F00091F3951B550BBB27AA2762177307840733
:1009000038F09F5F5F4F220F331F441FAA1FA9F3C8
:1009100035D00E2E3AF0E0E832D091505040E695B6
:10092000001CCAF72BD0FE2F29D0660F771F881F17
:10093000BB1F261737074807AB07B0E809F0BB0B0A
:10094000802DBF01FF2793585F4F3AF09E3F51051E
:1009500078F00C9443050C948E055F3FE4F3983EC9
:10096000D4F3869577956795B795F7959F5FC9F707
:10097000880F911D9695879597F90895E1E0660F88
:10098000771F881FBB1F621773078407BA0720F001
:10099000621B730B840BBA0BEE1F88F7E09508956A
:1009A0000E94D7046894B1110C948E0508950E949A
:1009B000730588F09F5798F0B92F9927B751B0F079
:1009C000E1F0660F771F881F991F1AF0BA95C9F7D3
:1009D00014C0B13091F00E948D05B1E008950C94DF
:1009E0008D05672F782F8827B85F39F0B93FCCF392
:1009F000869577956795B395D9F73EF49095809550
:100A0000709561957F4F8F4F9F4F0895E89409C06F
:100A100097FB3EF490958095709561957F4F8F4F31
:100A20009F4F9923A9F0F92F96E9BB279395F69547
:100A3000879577956795B795F111F8CFFAF4BB0FC5
:100A400011F460FF1BC06F5F7F4F8F4F9F4F16C029
:100A5000882311F096E911C0772321F09EE8872FB3
:100A6000762F05C0662371F096E8862F70E060E06F
:100A70002AF09A95660F771F881FDAF7880F9695E8
:100A8000879597F9089597F99F6780E870E060E08F
:100A900008959FEF80EC089500240A941616170617
:100AA00018060906089500240A941216130614065F
:100AB00005060895092E0394000C11F4882352F0C2
:100AC000BB0F40F4BF2B11F460FF04C06F5F7F4F7A
:100AD0008F4F9F4F089557FD9058440F551F59F061
:100AE0005F3F71F04795880F97FB991F61F09F3F1B
:100AF00079F087950895121613061406551FF2CF44
:100B00004695F1DF08C0161617061806991FF1CF93
:100B100086957105610508940895E894BB276627BA
:100B20007727CB0197F90895A1E21A2EAA1BBB1BC8
:100B3000FD010DC0AA1FBB1FEE1FFF1FA217B307A9
:100B4000E407F50720F0A21BB30BE40BF50B661FBF
:100B5000771F881F991F1A9469F760957095809583
:100B600090959B01AC01BD01CF010895EE0FFF1FD1
:0C0B70000590F491E02D0994F894FFCF5B
:100B7C00000000007401D4000101C1013201100118
:0A0B8C0024012020636D000D0A0013
:00000001FF
