:100000000C945E000C9486000C9486000C94860080
:100010000C9486000C9486000C9486000C947A0252
:100020000C9486000C9486000C9486000C94860038
:100030000C9486000C9486000C9486000C94860028
:100040000C9430020C9486000C94FC020C94D602A2
:100050000C9486000C9486000C9486000C94860008
:100060000C9486000C9486000000000024002700F9
:100070002A0000000000250028002B0004040404CE
:100080000404040402020202020203030303030342
:10009000010204081020408001020408102001021F
:1000A00004081020000000080002010000030407FB
:1000B00000000000000000000200C80511241FBE5F
:1000C000CFEFD8E0DEBFCDBF11E0A0E0B1E0ECE7BC
:1000D000FCE002C005900D92A632B107D9F721E0ED
:1000E000A6E2B1E001C01D92AD3DB207E1F710E01C
:1000F000CEE5D0E004C02197FE010E943606CD3542
:10010000D107C9F70E942E030C943C060C94000002
:100110003FB7F8948091D9019091DA01A091DB0169
:10012000B091DC0126B5A89B05C02F3F19F00196C0
:10013000A11DB11D3FBFBA2FA92F982F8827BC0141
:10014000CD01620F711D811D911D42E0660F771F69
:10015000881F991F4A95D1F708959091000189133E
:100160000DC0E8EBF0E0E4919FEF90930001E130E7
:1001700009F431C068F1E23009F433C090E0FC01C9
:10018000EC55FF4F2491FC01E057FF4F3491FC01E7
:10019000E458FF4FE491EE23D1F0222351F02330B5
:1001A00009F43AC078F5213009F43CC0223009F452
:1001B0003DC0F0E0EE0FFF1FEE58FF4FA591B49148
:1001C0008FB7F894EC9130953E233C938FBF089500
:1001D00010926E00D3CF90916F009D7F90936F002F
:1001E000CDCF909170009D7F9093700091E090939F
:1001F000B0009091B100987F94609093B1001092FC
:10020000B300BCCF2730A9F02830C9F0243089F6DC
:10021000809180008F7D03C0809180008F778093D4
:100220008000C7CF84B58F7784BDC3CF84B58F7D61
:10023000FBCF8091B0008F778093B000BACF8091D0
:10024000B0008F7DF9CFAF92BF92CF92DF92EF9245
:10025000FF920F931F93CF93DF936C017B018B0170
:10026000040F151FEB015E01AE18BF08C017D107C0
:1002700059F06991D601ED91FC910190F081E02D4A
:10028000C6010995892B79F7C501DF91CF911F919F
:100290000F91FF90EF90DF90CF90BF90AF900895B7
:1002A000FC01538D448D252F30E0842F90E0821B7C
:1002B000930B541710F0CF96089501970895FC0101
:1002C000918D828D981761F0A28DAE0FBF2FB11D59
:1002D0005D968C91928D9F5F9F73928F90E00895B1
:1002E0008FEF9FEF0895FC01918D828D981731F06B
:1002F000828DE80FF11D858D90E008958FEF9FEFBF
:100300000895FC01918D228D892F90E0805C9F4F94
:10031000821B91098F739927089580E391E00E94D1
:10032000810121E0892B09F420E0822F089580E0EB
:1003300090E0892B29F00E948D0181110C9400001E
:100340000895FC01A48DA80FB92FB11DA35ABF4F6A
:100350002C91848D90E001968F739927848FA689C4
:10036000B7892C93A089B1898C91837080648C9318
:10037000938D848D981306C00288F389E02D8081C7
:100380008F7D80830895EF92FF920F931F93CF93F9
:10039000DF93EC0181E0888F9B8D8C8D98131AC0C0
:1003A000E889F989808185FF15C09FB7F894EE89A7
:1003B000FF896083E889F989808183708064808304
:1003C0009FBF81E090E0DF91CF911F910F91FF904F
:1003D000EF900895F62E0B8D10E00F5F1F4F0F73F7
:1003E0001127E02E8C8D8E110CC00FB607FCFACFB2
:1003F000E889F989808185FFF5CFCE010E94A101AE
:10040000F1CFEB8DEC0FFD2FF11DE35AFF4FF08282
:100410009FB7F8940B8FEA89FB8980818062CFCFE8
:10042000CF93DF93EC01888D8823B9F0AA89BB892B
:10043000E889F9898C9185FD03C0808186FD0DC016
:100440000FB607FCF7CF8C9185FFF2CF808185FF37
:10045000EDCFCE010E94A101E9CFDF91CF910895A8
:100460001F920F920FB60F9211242F933F938F93E9
:100470009F93AF93BF938091D5019091D601A091A6
:10048000D701B091D8013091D40123E0230F2D374B
:1004900058F50196A11DB11D2093D4018093D5017B
:1004A0009093D601A093D701B093D8018091D90140
:1004B0009091DA01A091DB01B091DC010196A11DC0
:1004C000B11D8093D9019093DA01A093DB01B09321
:1004D000DC01BF91AF919F918F913F912F910F9030
:1004E0000FBE0F901F90189526E8230F0296A11DAE
:1004F000B11DD2CF1F920F920FB60F9211242F93DE
:100500003F934F935F936F937F938F939F93AF939B
:10051000BF93EF93FF938091D0019091D101A0916F
:10052000D201B091D301892B8A2B8B2BD1F19091E1
:10053000CF01E091CD01F091CE01808189278083A8
:100540008091D0019091D101A091D201B091D301BD
:10055000181619061A061B069CF48091D00190917A
:10056000D101A091D201B091D3010197A109B109A4
:100570008093D0019093D101A093D201B093D30185
:10058000FF91EF91BF91AF919F918F917F916F916B
:100590005F914F913F912F910F900FBE0F901F9041
:1005A0001895809100010E94AD00EACF1F920F9232
:1005B0000FB60F9211242F933F934F935F936F9336
:1005C0007F938F939F93AF93BF93EF93FF9380E3BA
:1005D00091E00E94A101FF91EF91BF91AF919F9196
:1005E0008F917F916F915F914F913F912F910F90DC
:1005F0000FBE0F901F9018951F920F920FB60F927B
:1006000011242F938F939F93EF93FF93E0914001D9
:10061000F09141018081E0914601F091470182FD16
:100620001BC09081809149018F5F8F7320914A0197
:10063000821741F0E0914901F0E0E05DFE4F958FB7
:1006400080934901FF91EF919F918F912F910F908E
:100650000FBE0F901F9018958081F4CF789484B5C9
:10066000826084BD84B5816084BD85B5826085BDAE
:1006700085B5816085BD80916E00816080936E003C
:10068000109281008091810082608093810080912E
:1006900081008160809381008091800081608093DF
:1006A00080008091B10084608093B1008091B0009F
:1006B00081608093B00080917A00846080937A009A
:1006C00080917A00826080937A0080917A008160C4
:1006D00080937A0080917A00806880937A001092EB
:1006E000C100E0914001F091410182E08083E091FE
:1006F0003C01F0913D011082E0913E01F0913F01FB
:1007000080E1808310924801E0914401F09145011D
:1007100086E08083E0914201F09143018081806115
:100720008083E0914201F091430180818860808361
:10073000E0914201F0914301808180688083E091E3
:100740004201F091430180818F7D8083CC24CA9443
:10075000DC2C76017AE9272E70E0372E06E810E0CF
:1007600080E391E00E948101892B09F440C080E37D
:1007700091E00E945F019FEC980F9830A8F5E82F58
:10078000EE0FFF0BED54FF4F8080918080910001B0
:100790008A30D1F5E8EBF0E0C491C7FF7FC00E943A
:1007A00088002B013C0124EF822E99249394A12CE4
:1007B000B12C0E9488006419750986099709683E62
:1007C000734081059105A8F321E0821A9108A108E0
:1007D000B10888EE480E83E0581E611C711C81141C
:1007E0009104A104B10429F78AE00E94AD0080E0E1
:1007F00090E0892B09F4B4CF0E948D01882309F47D
:10080000A9CF0E940000A6CF8F3F49F68AE08093CF
:100810000001E8EBF0E0C491CF3F09F4C0CFC13054
:1008200009F4FDC020F1C23009F0B7CF1092B0003A
:100830001092B1008091B00082608093B0008091EE
:10084000B10081608093B100F8018491E82FF0E05D
:10085000EE0FFF1FEE58FF4F859194919093CE01BC
:100860008093CD01F10184918093CF0117C014BC16
:1008700015BC84B5826084BD85B5816085BDF801F5
:100880008491E82FF0E0EE0FFF1FEE58FF4F8591A7
:100890009491F101849180932701C0E0F10144918A
:1008A000F8018491882399F090E0880F991FFC014A
:1008B000E859FF4FA591B491FC01EE58FF4F2591E7
:1008C00034918FB7F8949C91492B4C938FBFB12CE6
:1008D000A12C60E072E18AE790E0A50194010E94FA
:1008E000F50529013A01BA01A901415051096109EF
:1008F00071098C2F8D7F09F00AC14F3F51056105A9
:10090000710509F00CF4EBC060E472E48FE090E054
:10091000A50194010E94F505BA01A90141505109B0
:1009200061097109C23009F097C082E04F3F51055B
:100930006105710509F00CF463C060E970ED83E0B6
:1009400090E0A50194010E94F505BA01A90141506A
:1009500051096109710983E04F3F51056105710536
:1009600009F00CF44DC068E478EE81E090E0A50158
:1009700094010E94F505BA01A9014150510961098C
:10098000710984E04F3F510561057105C9F1C4F15A
:1009900064E274EF80E090E0A50194010E94F50507
:1009A000BA01A901415051096109710985E04F3F20
:1009B00051056105710521F118F162E17AE780E0E6
:1009C00090E0A50194010E94F505BA01A9014150EA
:1009D00051096109710986E04F3F510561057105B3
:1009E00079F070F0B301A2019AE07595679557957B
:1009F00047959A95D1F7415051096109710987E0EE
:100A00009091B100987F892B8093B100C13009F497
:100A10009DC0C23009F4ACC0C111C1CE67C01092F4
:100A20008000109281008091810088608093810015
:100A300080918100816080938100F8018491E82F8A
:100A4000F0E0EE0FFF1FEE58FF4F85919491F101FA
:100A500084918093260122CF4F3F51056105710596
:100A600009F00CF452C068E478EE81E090E0A50152
:100A700094010E94F505BA01A9014150510961098B
:100A8000710984E0C11193CF83E04F3F51056105A7
:100A9000710541F13CF162E17AE780E090E0A50167
:100AA00094010E94F505BA01A9014150510961095B
:100AB000710984E04F3F51056105710599F090F08F
:100AC000B301A2018AE075956795579547958A9578
:100AD000D1F7415051096109710985E003C081E0F6
:100AE000C1118ECF95B5987F892B85BD47BDC0922A
:100AF0002C01D0922D01E0922E01F0922F018091D5
:100B00006E00826080936E004ACE82E0E9CF91E071
:100B100041155105F1E06F0771057CF068E478EE4E
:100B200081E090E0A50194010E94F505BA01A901B8
:100B3000415051096109710993E0C13009F066CF54
:100B400080918100887F892B809381005093890058
:100B500040938800C0922801D0922901E0922A0196
:100B6000F0922B0180916F00826080936F0017CE0E
:100B70004093B300C092D001D092D101E092D20153
:100B8000F092D3018091700082608093700007CE54
:100B9000E0E3F1E01382128288EE93E0A0E0B0E09F
:100BA00084839583A683B78385E091E091838083D6
:100BB00085EC90E09587848784EC90E09787868722
:100BC00080EC90E0918B808B81EC90E0938B828B1A
:100BD00082EC90E0958B848B86EC90E0978B868BF3
:100BE000118E128E138E148E0895052E97FB1EF40F
:100BF00000940E940C0657FD07D00E94140607FCC3
:100C000003D04EF40C940C065095409530952195E8
:100C10003F4F4F4F5F4F0895909580957095619528
:100C20007F4F8F4F9F4F0895A1E21A2EAA1BBB1B27
:100C3000FD010DC0AA1FBB1FEE1FFF1FA217B307A8
:100C4000E407F50720F0A21BB30BE40BF50B661FBE
:100C5000771F881F991F1A9469F760957095809582
:100C600090959B01AC01BD01CF010895EE0FFF1FD0
:0C0C70000590F491E02D0994F894FFCF5A
:100C7C00FF00000000C30123015001100281015F3D
:100C8C00017301FFFF060126014A015D018901B8CC
:060C9C0001EE010B020055
:00000001FF
