:100000000C945C000C9479000C9479000C947900A9
:100010000C9479000C9479000C9479000C9479007C
:100020000C9479000C9479000C9479000C9479006C
:100030000C9479000C9479000C9479000C9479005C
:100040000C94EC000C9479000C9479000C947900D9
:100050000C9479000C9479000C9479000C9479003C
:100060000C9479000C947900000000002400270013
:100070002A0000000000250028002B0004040404CE
:100080000404040402020202020203030303030342
:10009000010204081020408001020408102001021F
:1000A00004081020000000080002010000030407FB
:1000B000000000000000000011241FBECFEFD8E0B8
:1000C000DEBFCDBF11E0A0E0B1E0E4E5F6E002C0A4
:1000D00005900D92A431B107D9F721E0A4E1B1E078
:1000E00001C01D92AD31B207E1F70E9436010C94B8
:1000F00028030C94000090E0FC01EC55FF4F249184
:10010000FC01E057FF4F3491FC01E458FF4FE491AC
:10011000EE23C9F0222339F0233001F1A8F4213075
:1001200019F1223029F1F0E0EE0FFF1FEE58FF4FDA
:10013000A591B4918FB7F894EC91611126C03095D8
:100140003E233C938FBF08952730A9F02830C9F093
:10015000243049F7809180008F7D03C0809180001A
:100160008F7780938000DFCF84B58F7784BDDBCF1E
:1001700084B58F7DFBCF8091B0008F778093B000E6
:10018000D2CF8091B0008F7DF9CF3E2BDACF3FB731
:10019000F8948091190190911A01A0911B01B091DE
:1001A0001C0126B5A89B05C02F3F19F00196A11D83
:1001B000B11D3FBFBA2FA92F982F8827BC01CD01B1
:1001C000620F711D811D911D42E0660F771F881F10
:1001D000991F4A95D1F708951F920F920FB60F926B
:1001E00011242F933F938F939F93AF93BF9380914D
:1001F000150190911601A0911701B091180130914D
:10020000140123E0230F2D3758F50196A11DB11DD0
:10021000209314018093150190931601A093170168
:10022000B09318018091190190911A01A0911B01BE
:10023000B0911C010196A11DB11D809319019093ED
:100240001A01A0931B01B0931C01BF91AF919F9124
:100250008F913F912F910F900FBE0F901F90189587
:1002600026E8230F0296A11DB11DD2CF789484B544
:10027000826084BD84B5816084BD85B5826085BDA2
:1002800085B5816085BD80916E00816080936E0030
:100290001092810080918100826080938100809122
:1002A00081008160809381008091800081608093D3
:1002B00080008091B10084608093B1008091B00093
:1002C00081608093B00080917A00846080937A008E
:1002D00080917A00826080937A0080917A008160B8
:1002E00080937A0080917A00806880937A001092DF
:1002F000C100A4E0B1E024E131E08D919D91992706
:10030000FC01E057FF4F449184589F4FFC018491BA
:10031000882399F090E0880F991FFC01E859FF4F5E
:10032000C591D491FC01EE58FF4F859194918FB700
:10033000F894E881E42BE8838FBF2A173B07E9F69E
:1003400092E0492E512C612C712C00E010E0C8E0A5
:10035000D0E00E946D0223E030E040E050E00E94D7
:10036000C5026B017C01FFEFCF1ADF0AEF0AFF0A1B
:1003700022E0C216D104E104F10409F448C083E08C
:10038000C816D104E104F10409F44EC0CA94CD2882
:10039000CE28CF2871F40E946D02A30192010E9421
:1003A000C502F62E82E00E947B006F2D86E00E943F
:1003B0007B000E94C7004B015C018AEFC82ED12C44
:1003C000E12CF12C0E94C700681979098A099B0960
:1003D000683E734081059105A8F3F1E0CF1AD1087A
:1003E000E108F10828EE820E23E0921EA11CB11C48
:1003F000C114D104E104F10429F7219709F0A9CF30
:100400000115110509F4A3CF0E940000A0CF0E949E
:100410006D02A70196010E94C502F62E83E00E949C
:100420007B006F2D87E0C3CF0E946D02A301920174
:100430000E94C502F62E84E00E947B006F2D88E0AA
:10044000B6CF8F929F92AF92BF92CF92DF92EF92F0
:10045000FF92CF93DF93EC01688179818A819B8140
:10046000611571058105910521F464E279ED8BE553
:1004700097E02DE133EF41E050E00E94C5024901D1
:100480005A019B01AC01A7EAB1E40E94E4026B01AE
:100490007C01ACEEB4EFA50194010E94F202C60EFD
:1004A000D71EE81EF91EF7FE06C081E0C81AD10863
:1004B000E10880E8F80AC882D982EA82FB82C70193
:1004C000B6019F77DF91CF91FF90EF90DF90CF90B3
:1004D000BF90AF909F908F9008958F929F92AF9210
:1004E000BF92CF92DF92EF92FF92609100017091E4
:1004F000010180910201909103016115710581054F
:10050000910521F464E279ED8BE597E02DE133EF7D
:1005100041E050E00E94C50249015A019B01AC0133
:10052000A7EAB1E40E94E4026B017C01ACEEB4EFF7
:10053000A50194010E94F202C60ED71EE81EF91E04
:10054000F7FE06C081E0C81AD108E10880E8F80A81
:10055000C0920001D0920101E0920201F0920301E9
:10056000C701B6019F77FF90EF90DF90CF90BF90CB
:10057000AF909F908F900895609300017093010158
:1005800080930201909303010895052E97FB1EF4BA
:1005900000940E94DC0257FD07D00E94F70207FC7E
:1005A00003D04EF40C94DC02509540953095219583
:1005B0003F4F4F4F5F4F089590958095709561958F
:1005C0007F4F8F4F9F4F08950E941903A59F900D55
:1005D000B49F900DA49F800D911D11240895B7FF25
:1005E0000C94E4020E94E402821B930B0895A1E2A2
:1005F0001A2EAA1BBB1BFD010DC0AA1FBB1FEE1F9D
:10060000FF1FA217B307E407F50720F0A21BB30BE7
:10061000E40BF50B661F771F881F991F1A9469F763
:1006200060957095809590959B01AC01BD01CF01BF
:100630000895A29FB001B39FC001A39F700D811DBB
:100640001124911DB29F700D811D1124911D0895DB
:04065000F894FFCF4C
:10065400010000000200030004000500060007007A
:040664000800090081
:00000001FF
