:100000000C9462000C94D4020C94AD020C948A00FF
:100010000C948A000C948A000C948A000C948A0038
:100020000C948A000C948A000C948A000C948A0028
:100030000C948A000C948A000C948A000C948A0018
:100040000C9463020C948A000C9421030C94FB0220
:100050000C948A000C948A000C948A000C948A00F8
:100060000C948A000C948A000000000023002600F3
:10007000290000000000240027002A0000000000E2
:10008000250028002B0004040404040404040202D4
:100090000202020203030303030301020408102007
:1000A0004080010204081020010204081020000012
:1000B0000008000201000003040700000000000027
:1000C0000000780411241FBECFEFD8E0DEBFCDBF03
:1000D00011E0A0E0B1E0EEE9F9E002C005900D9278
:1000E000AE31B107D9F721E0AEE1B1E001C01D9218
:1000F000AC3CB207E1F710E0C2E6D0E004C02197C3
:10010000FE010E94C704C136D107C9F70E945303FC
:100110000C94CD040C940000833081F028F48130DD
:1001200099F08230A9F008958730A9F08830C9F09D
:100130008430B1F4809180008F7D03C08091800075
:100140008F7780938000089584B58F7784BD08955C
:1001500084B58F7DFBCF8091B0008F778093B00006
:1001600008958091B0008F7DF9CF1F93CF93DF93D7
:10017000E9EBF0E09491E5EAF0E0D491E1E9F0E018
:10018000C491CC23B9F0182F992319F0892F0E941C
:100190008C00EC2FF0E0EE0FFF1FE458FF4FA5910D
:1001A000B4918FB7F894EC91111108C0D095DE236B
:1001B000DC938FBFDF91CF911F910895DE2BF8CF95
:1001C0003FB7F89480912B0190912C01A0912D01C3
:1001D000B0912E0126B5A89B05C02F3F19F00196BE
:1001E000A11DB11D3FBFBA2FA92F982F8827BC0191
:1001F000CD01620F711D811D911D42E0660F771FB9
:10020000881F991F4A95D1F708950895AF92BF921C
:10021000CF92DF92EF92FF920F931F93CF93DF93D2
:100220006C017B018B01040F151FEB015E01AE1801
:10023000BF08C017D10759F06991D601ED91FC9123
:100240000190F081E02DC6010995892B79F7C50150
:10025000DF91CF911F910F91FF90EF90DF90CF90A2
:10026000BF90AF900895FC01538D448D252F30E051
:10027000842F90E0821B930B541710F0CF960895B3
:1002800001970895FC01918D828D981761F0A28DE0
:10029000AE0FBF2FB11D5D968C91928D9F5F9F73A6
:1002A000928F90E008958FEF9FEF0895FC01918D5C
:1002B000828D981731F0828DE80FF11D858D90E0C9
:1002C00008958FEF9FEF0895FC01918D228D892F66
:1002D00090E0805C9F4F821B91098F73992708954E
:1002E0008FE291E00E94640121E0892B09F420E073
:1002F000822F089580E090E0892B29F00E94700100
:1003000081110C9400000895FC01A48DA80FB92F51
:10031000B11DA35ABF4F2C91848D90E001968F732D
:100320009927848FA689B7892C93A089B1898C914C
:10033000837080648C93938D848D981306C002889B
:10034000F389E02D80818F7D80830895EF92FF9265
:100350000F931F93CF93DF93EC0181E0888F9B8DE8
:100360008C8D98131AC0E889F989808185FF15C0A2
:100370009FB7F894EE89FF896083E889F9898081C5
:100380008370806480839FBF81E090E0DF91CF9194
:100390001F910F91FF90EF900895F62E0B8D10E0B6
:1003A0000F5F1F4F0F731127E02E8C8D8E110CC025
:1003B0000FB607FCFACFE889F989808185FFF5CF70
:1003C000CE010E948401F1CFEB8DEC0FFD2FF11DCA
:1003D000E35AFF4FF0829FB7F8940B8FEA89FB89AD
:1003E00080818062CFCFCF93DF93EC01888D88230B
:1003F000B9F0AA89BB89E889F9898C9185FD03C088
:10040000808186FD0DC00FB607FCF7CF8C9185FF6C
:10041000F2CF808185FFEDCFCE010E948401E9CF2C
:10042000DF91CF9108950F931F93CF93DF93EAEB62
:10043000F0E08491E6EAF0E0D491E2E9F0E0C491E2
:10044000CC23E9F081110E948C00EC2FF0E0EE0F3C
:10045000FF1FE859FF4FA591B491EC91ED2379F07E
:100460000E94E00060931E0170931F0180932001A1
:1004700090932101DF91CF911F910F9108950E94D8
:10048000E00000911E0110911F0120912001309188
:100490002101601B710B820B930B609322017093FF
:1004A00023018093240190932501E4CFFC01019066
:1004B0000020E9F73197AF01481B590BBC018FE2CF
:1004C00091E00C9406011F920F920FB60F92112427
:1004D0002F933F938F939F93AF93BF938091270167
:1004E00090912801A0912901B0912A013091260113
:1004F00023E0230F2D3758F50196A11DB11D209340
:1005000026018093270190932801A0932901B0939D
:100510002A0180912B0190912C01A0912D01B09185
:100520002E010196A11DB11D80932B0190932C01EA
:10053000A0932D01B0932E01BF91AF919F918F9108
:100540003F912F910F900FBE0F901F90189526E8A6
:10055000230F0296A11DB11DD2CF1F920F920FB68D
:100560000F9211242F933F934F935F936F937F9339
:100570008F939F93AF93BF93EF93FF93E09102010B
:10058000F09103010995FF91EF91BF91AF919F9178
:100590008F917F916F915F914F913F912F910F902C
:1005A0000FBE0F901F9018951F920F920FB60F92CB
:1005B00011242F933F934F935F936F937F938F9368
:1005C0009F93AF93BF93EF93FF93E0910001F0915E
:1005D00001010995FF91EF91BF91AF919F918F918B
:1005E0007F916F915F914F913F912F910F900FBE2F
:1005F0000F901F9018951F920F920FB60F92112413
:100600002F933F934F935F936F937F938F939F931A
:10061000AF93BF93EF93FF938FE291E00E94840129
:10062000FF91EF91BF91AF919F918F917F916F91CA
:100630005F914F913F912F910F900FBE0F901F90A0
:1006400018951F920F920FB60F9211242F938F932C
:100650009F93EF93FF93E0913F01F09140018081E0
:10066000E0914501F091460182FD1BC0908180918F
:1006700048018F5F8F7320914901821741F0E0910B
:100680004801F0E0E15DFE4F958F80934801FF91B6
:10069000EF919F918F912F910F900FBE0F901F9010
:1006A00018958081F4CFCF93DF93CDB7DEB7A197B4
:1006B0000FB6F894DEBF0FBECDBF789484B58260CC
:1006C00084BD84B5816084BD85B5826085BD85B5F6
:1006D000816085BD80916E00816080936E00109274
:1006E00081008091810082608093810080918100EF
:1006F0008160809381008091800081608093800080
:100700008091B10084608093B1008091B0008160DD
:100710008093B00080917A00846080937A00809109
:100720007A00826080937A0080917A008160809361
:100730007A0080917A00806880937A001092C100DC
:10074000E5EAF0E02491E1E9F0E08491882399F072
:1007500090E0880F991FFC01EE58FF4FA591B491CE
:10076000FC01E458FF4F859194918FB7F894EC9178
:10077000E22BEC938FBFE6EAF0E02491E2E9F0E0AF
:1007800084918823C9F090E0880F991FFC01EE58EE
:10079000FF4F45915491FC01E458FF4FA591B4914E
:1007A0009FB7F894FA0180812095822380838C91F1
:1007B000E22FE823EC939FBFE0913F01F0914001CD
:1007C00082E08083E0913B01F0913C011082E09156
:1007D0003D01F0913E0180E1808310924701E0915C
:1007E0004301F091440186E08083E0914101F09162
:1007F0004201808180618083E0914101F09142015A
:10080000808188608083E0914101F0914201808184
:1008100080688083E0914101F091420180818F7D69
:10082000808382E3C82ED12CE12CF12C9AE0492E52
:10083000512C612C712C23E0A22EB12C33E2832E9B
:10084000912C40E0242E40E0342E609122017091E2
:100850002301809124019091250161157105810585
:100860009105C9F480E00E94B500C5010197F1F738
:1008700081E00E94B500C4010197F1F780E00E9479
:10088000B5002114310409F30E9470018823E9F2B4
:100890000E940000DACFA70196010E94A50419A2C8
:1008A0008E010F5D1F4FCA01B901A30192010E9481
:1008B000A504605DF80162938F01211531054105A2
:1008C000510589F7309719F0CF010E94560286E151
:1008D00091E00E9456028AE191E00E945602109235
:1008E0002201109223011092240110922501C9CFF8
:1008F000EFE2F1E01382128288EE93E0A0E0B0E034
:1009000084839583A683B78388E091E09183808375
:1009100085EC90E09587848784EC90E097878687C4
:1009200080EC90E0918B808B81EC90E0938B828BBC
:1009300082EC90E0958B848B86EC90E0978B868B95
:10094000118E128E138E148E0895A1E21A2EAA1BF8
:10095000BB1BFD010DC0AA1FBB1FEE1FFF1FA2176F
:10096000B307E407F50720F0A21BB30BE40BF50B6C
:10097000661F771F881F991F1A9469F760957095F5
:10098000809590959B01AC01BD01CF010895EE0FBC
:0E099000FF1F0590F491E02D0994F894FFCF1D
:10099E000501050100000000A60106013301F30167
:0E09AE0064014201560120636D000D0A000035
:00000001FF
